{
  "address": "0xA2fd56046fE4e20c9560b2B92a30Ff6Ed7C8b27E",
  "abi": [
    {
      "inputs": [
        {
          "internalType": "address",
          "name": "defaultAdmin",
          "type": "address"
        },
        {
          "internalType": "address",
          "name": "minter",
          "type": "address"
        }
      ],
      "stateMutability": "nonpayable",
      "type": "constructor"
    },
    {
      "anonymous": false,
      "inputs": [
        {
          "indexed": true,
          "internalType": "address",
          "name": "owner",
          "type": "address"
        },
        {
          "indexed": true,
          "internalType": "address",
          "name": "approved",
          "type": "address"
        },
        {
          "indexed": true,
          "internalType": "uint256",
          "name": "tokenId",
          "type": "uint256"
        }
      ],
      "name": "Approval",
      "type": "event"
    },
    {
      "anonymous": false,
      "inputs": [
        {
          "indexed": true,
          "internalType": "address",
          "name": "owner",
          "type": "address"
        },
        {
          "indexed": true,
          "internalType": "address",
          "name": "operator",
          "type": "address"
        },
        {
          "indexed": false,
          "internalType": "bool",
          "name": "approved",
          "type": "bool"
        }
      ],
      "name": "ApprovalForAll",
      "type": "event"
    },
    {
      "anonymous": false,
      "inputs": [
        {
          "indexed": true,
          "internalType": "bytes32",
          "name": "role",
          "type": "bytes32"
        },
        {
          "indexed": true,
          "internalType": "bytes32",
          "name": "previousAdminRole",
          "type": "bytes32"
        },
        {
          "indexed": true,
          "internalType": "bytes32",
          "name": "newAdminRole",
          "type": "bytes32"
        }
      ],
      "name": "RoleAdminChanged",
      "type": "event"
    },
    {
      "anonymous": false,
      "inputs": [
        {
          "indexed": true,
          "internalType": "bytes32",
          "name": "role",
          "type": "bytes32"
        },
        {
          "indexed": true,
          "internalType": "address",
          "name": "account",
          "type": "address"
        },
        {
          "indexed": true,
          "internalType": "address",
          "name": "sender",
          "type": "address"
        }
      ],
      "name": "RoleGranted",
      "type": "event"
    },
    {
      "anonymous": false,
      "inputs": [
        {
          "indexed": true,
          "internalType": "bytes32",
          "name": "role",
          "type": "bytes32"
        },
        {
          "indexed": true,
          "internalType": "address",
          "name": "account",
          "type": "address"
        },
        {
          "indexed": true,
          "internalType": "address",
          "name": "sender",
          "type": "address"
        }
      ],
      "name": "RoleRevoked",
      "type": "event"
    },
    {
      "anonymous": false,
      "inputs": [
        {
          "indexed": true,
          "internalType": "address",
          "name": "from",
          "type": "address"
        },
        {
          "indexed": true,
          "internalType": "address",
          "name": "to",
          "type": "address"
        },
        {
          "indexed": true,
          "internalType": "uint256",
          "name": "tokenId",
          "type": "uint256"
        }
      ],
      "name": "Transfer",
      "type": "event"
    },
    {
      "inputs": [],
      "name": "DEFAULT_ADMIN_ROLE",
      "outputs": [
        {
          "internalType": "bytes32",
          "name": "",
          "type": "bytes32"
        }
      ],
      "stateMutability": "view",
      "type": "function"
    },
    {
      "inputs": [],
      "name": "MINTER_ROLE",
      "outputs": [
        {
          "internalType": "bytes32",
          "name": "",
          "type": "bytes32"
        }
      ],
      "stateMutability": "view",
      "type": "function"
    },
    {
      "inputs": [
        {
          "internalType": "address",
          "name": "to",
          "type": "address"
        },
        {
          "internalType": "uint256",
          "name": "tokenId",
          "type": "uint256"
        }
      ],
      "name": "approve",
      "outputs": [],
      "stateMutability": "nonpayable",
      "type": "function"
    },
    {
      "inputs": [
        {
          "internalType": "address",
          "name": "owner",
          "type": "address"
        }
      ],
      "name": "balanceOf",
      "outputs": [
        {
          "internalType": "uint256",
          "name": "",
          "type": "uint256"
        }
      ],
      "stateMutability": "view",
      "type": "function"
    },
    {
      "inputs": [
        {
          "internalType": "uint256",
          "name": "tokenId",
          "type": "uint256"
        }
      ],
      "name": "getApproved",
      "outputs": [
        {
          "internalType": "address",
          "name": "",
          "type": "address"
        }
      ],
      "stateMutability": "view",
      "type": "function"
    },
    {
      "inputs": [
        {
          "internalType": "bytes32",
          "name": "role",
          "type": "bytes32"
        }
      ],
      "name": "getRoleAdmin",
      "outputs": [
        {
          "internalType": "bytes32",
          "name": "",
          "type": "bytes32"
        }
      ],
      "stateMutability": "view",
      "type": "function"
    },
    {
      "inputs": [
        {
          "internalType": "bytes32",
          "name": "role",
          "type": "bytes32"
        },
        {
          "internalType": "address",
          "name": "account",
          "type": "address"
        }
      ],
      "name": "grantRole",
      "outputs": [],
      "stateMutability": "nonpayable",
      "type": "function"
    },
    {
      "inputs": [
        {
          "internalType": "bytes32",
          "name": "role",
          "type": "bytes32"
        },
        {
          "internalType": "address",
          "name": "account",
          "type": "address"
        }
      ],
      "name": "hasRole",
      "outputs": [
        {
          "internalType": "bool",
          "name": "",
          "type": "bool"
        }
      ],
      "stateMutability": "view",
      "type": "function"
    },
    {
      "inputs": [
        {
          "internalType": "address",
          "name": "owner",
          "type": "address"
        },
        {
          "internalType": "address",
          "name": "operator",
          "type": "address"
        }
      ],
      "name": "isApprovedForAll",
      "outputs": [
        {
          "internalType": "bool",
          "name": "",
          "type": "bool"
        }
      ],
      "stateMutability": "view",
      "type": "function"
    },
    {
      "inputs": [],
      "name": "name",
      "outputs": [
        {
          "internalType": "string",
          "name": "",
          "type": "string"
        }
      ],
      "stateMutability": "view",
      "type": "function"
    },
    {
      "inputs": [
        {
          "internalType": "uint256",
          "name": "tokenId",
          "type": "uint256"
        }
      ],
      "name": "ownerOf",
      "outputs": [
        {
          "internalType": "address",
          "name": "",
          "type": "address"
        }
      ],
      "stateMutability": "view",
      "type": "function"
    },
    {
      "inputs": [
        {
          "internalType": "bytes32",
          "name": "role",
          "type": "bytes32"
        },
        {
          "internalType": "address",
          "name": "account",
          "type": "address"
        }
      ],
      "name": "renounceRole",
      "outputs": [],
      "stateMutability": "nonpayable",
      "type": "function"
    },
    {
      "inputs": [
        {
          "internalType": "bytes32",
          "name": "role",
          "type": "bytes32"
        },
        {
          "internalType": "address",
          "name": "account",
          "type": "address"
        }
      ],
      "name": "revokeRole",
      "outputs": [],
      "stateMutability": "nonpayable",
      "type": "function"
    },
    {
      "inputs": [
        {
          "internalType": "address",
          "name": "to",
          "type": "address"
        }
      ],
      "name": "safeMint",
      "outputs": [],
      "stateMutability": "nonpayable",
      "type": "function"
    },
    {
      "inputs": [
        {
          "internalType": "address",
          "name": "from",
          "type": "address"
        },
        {
          "internalType": "address",
          "name": "to",
          "type": "address"
        },
        {
          "internalType": "uint256",
          "name": "tokenId",
          "type": "uint256"
        }
      ],
      "name": "safeTransferFrom",
      "outputs": [],
      "stateMutability": "nonpayable",
      "type": "function"
    },
    {
      "inputs": [
        {
          "internalType": "address",
          "name": "from",
          "type": "address"
        },
        {
          "internalType": "address",
          "name": "to",
          "type": "address"
        },
        {
          "internalType": "uint256",
          "name": "tokenId",
          "type": "uint256"
        },
        {
          "internalType": "bytes",
          "name": "data",
          "type": "bytes"
        }
      ],
      "name": "safeTransferFrom",
      "outputs": [],
      "stateMutability": "nonpayable",
      "type": "function"
    },
    {
      "inputs": [
        {
          "internalType": "address",
          "name": "operator",
          "type": "address"
        },
        {
          "internalType": "bool",
          "name": "approved",
          "type": "bool"
        }
      ],
      "name": "setApprovalForAll",
      "outputs": [],
      "stateMutability": "nonpayable",
      "type": "function"
    },
    {
      "inputs": [
        {
          "internalType": "bytes4",
          "name": "interfaceId",
          "type": "bytes4"
        }
      ],
      "name": "supportsInterface",
      "outputs": [
        {
          "internalType": "bool",
          "name": "",
          "type": "bool"
        }
      ],
      "stateMutability": "view",
      "type": "function"
    },
    {
      "inputs": [],
      "name": "symbol",
      "outputs": [
        {
          "internalType": "string",
          "name": "",
          "type": "string"
        }
      ],
      "stateMutability": "view",
      "type": "function"
    },
    {
      "inputs": [
        {
          "internalType": "uint256",
          "name": "tokenId",
          "type": "uint256"
        }
      ],
      "name": "tokenURI",
      "outputs": [
        {
          "internalType": "string",
          "name": "",
          "type": "string"
        }
      ],
      "stateMutability": "view",
      "type": "function"
    },
    {
      "inputs": [
        {
          "internalType": "address",
          "name": "from",
          "type": "address"
        },
        {
          "internalType": "address",
          "name": "to",
          "type": "address"
        },
        {
          "internalType": "uint256",
          "name": "tokenId",
          "type": "uint256"
        }
      ],
      "name": "transferFrom",
      "outputs": [],
      "stateMutability": "nonpayable",
      "type": "function"
    }
  ],
  "transactionHash": "0xf76ef5cf35f89cc337e24443289ea67f57ac7f36c5d9e4facf9e669db24a9a51",
  "args": [
    "0x6e78B2Ac450b5C59c0E7C164bC2D68945562138b",
    "0x6e78B2Ac450b5C59c0E7C164bC2D68945562138b"
  ],
  "numDeployments": 1,
  "solcInputHash": "f980dfcd49037230cb23e390428269d8",
  "bytecode": "0x60806040523480156200001157600080fd5b5060405162001cee38038062001cee8339810160408190526200003491620001b2565b6040518060400160405280601e81526020017f42616c616e636520536561205072656d69756d204d656d62657273686970000081525060405180604001604052806007815260200166425345412d504d60c81b81525081600090816200009b91906200028f565b506001620000aa82826200028f565b50620000bc91506000905083620000f0565b620000e87f9f2df0fed2c77648de5860a4cc508cd0818c85b8b8a1ab4ceeef8d981c8956a682620000f0565b50506200035b565b60008281526006602090815260408083206001600160a01b038516845290915290205460ff16620001915760008281526006602090815260408083206001600160a01b03851684529091529020805460ff19166001179055620001503390565b6001600160a01b0316816001600160a01b0316837f2f8788117e7eff1d82e926ec794901d17c78024a50270940304540a733656f0d60405160405180910390a45b5050565b80516001600160a01b0381168114620001ad57600080fd5b919050565b60008060408385031215620001c657600080fd5b620001d18362000195565b9150620001e16020840162000195565b90509250929050565b634e487b7160e01b600052604160045260246000fd5b600181811c908216806200021557607f821691505b6020821081036200023657634e487b7160e01b600052602260045260246000fd5b50919050565b601f8211156200028a57600081815260208120601f850160051c81016020861015620002655750805b601f850160051c820191505b81811015620002865782815560010162000271565b5050505b505050565b81516001600160401b03811115620002ab57620002ab620001ea565b620002c381620002bc845462000200565b846200023c565b602080601f831160018114620002fb5760008415620002e25750858301515b600019600386901b1c1916600185901b17855562000286565b600085815260208120601f198616915b828110156200032c578886015182559484019460019091019084016200030b565b50858210156200034b5787850151600019600388901b60f8161c191681555b5050505050600190811b01905550565b611983806200036b6000396000f3fe608060405234801561001057600080fd5b50600436106101375760003560e01c80636352211e116100b8578063a22cb4651161007c578063a22cb46514610292578063b88d4fde146102a5578063c87b56dd146102b8578063d5391393146102cb578063d547741f146102f2578063e985e9c51461030557600080fd5b80636352211e1461024957806370a082311461025c57806391d148541461026f57806395d89b4114610282578063a217fddf1461028a57600080fd5b8063248a9ca3116100ff578063248a9ca3146101cc5780632f2ff15d146101fd57806336568abe1461021057806340d097c31461022357806342842e0e1461023657600080fd5b806301ffc9a71461013c57806306fdde0314610164578063081812fc14610179578063095ea7b3146101a457806323b872dd146101b9575b600080fd5b61014f61014a3660046113f1565b610341565b60405190151581526020015b60405180910390f35b61016c610352565b60405161015b919061145e565b61018c610187366004611471565b6103e4565b6040516001600160a01b03909116815260200161015b565b6101b76101b23660046114a6565b61040b565b005b6101b76101c73660046114d0565b610525565b6101ef6101da366004611471565b60009081526006602052604090206001015490565b60405190815260200161015b565b6101b761020b36600461150c565b610556565b6101b761021e36600461150c565b61057b565b6101b7610231366004611538565b6105f9565b6101b76102443660046114d0565b610644565b61018c610257366004611471565b61065f565b6101ef61026a366004611538565b6106bf565b61014f61027d36600461150c565b610745565b61016c610770565b6101ef600081565b6101b76102a0366004611553565b61077f565b6101b76102b33660046115a5565b61078a565b61016c6102c6366004611471565b6107c2565b6101ef7f9f2df0fed2c77648de5860a4cc508cd0818c85b8b8a1ab4ceeef8d981c8956a681565b6101b761030036600461150c565b61084b565b61014f610313366004611681565b6001600160a01b03918216600090815260056020908152604080832093909416825291909152205460ff1690565b600061034c82610870565b92915050565b606060008054610361906116ab565b80601f016020809104026020016040519081016040528092919081815260200182805461038d906116ab565b80156103da5780601f106103af576101008083540402835291602001916103da565b820191906000526020600020905b8154815290600101906020018083116103bd57829003601f168201915b5050505050905090565b60006103ef82610895565b506000908152600460205260409020546001600160a01b031690565b60006104168261065f565b9050806001600160a01b0316836001600160a01b0316036104885760405162461bcd60e51b815260206004820152602160248201527f4552433732313a20617070726f76616c20746f2063757272656e74206f776e656044820152603960f91b60648201526084015b60405180910390fd5b336001600160a01b03821614806104a457506104a48133610313565b6105165760405162461bcd60e51b815260206004820152603d60248201527f4552433732313a20617070726f76652063616c6c6572206973206e6f7420746f60448201527f6b656e206f776e6572206f7220617070726f76656420666f7220616c6c000000606482015260840161047f565b61052083836108f7565b505050565b61052f3382610965565b61054b5760405162461bcd60e51b815260040161047f906116e5565b6105208383836109e4565b60008281526006602052604090206001015461057181610b48565b6105208383610b52565b6001600160a01b03811633146105eb5760405162461bcd60e51b815260206004820152602f60248201527f416363657373436f6e74726f6c3a2063616e206f6e6c792072656e6f756e636560448201526e103937b632b9903337b91039b2b63360891b606482015260840161047f565b6105f58282610bd8565b5050565b7f9f2df0fed2c77648de5860a4cc508cd0818c85b8b8a1ab4ceeef8d981c8956a661062381610b48565b600780546000918261063483611748565b9190505590506105208382610c3f565b6105208383836040518060200160405280600081525061078a565b6000818152600260205260408120546001600160a01b03168061034c5760405162461bcd60e51b8152602060048201526018602482015277115490cdcc8c4e881a5b9d985b1a59081d1bdad95b88125160421b604482015260640161047f565b60006001600160a01b0382166107295760405162461bcd60e51b815260206004820152602960248201527f4552433732313a2061646472657373207a65726f206973206e6f7420612076616044820152683634b21037bbb732b960b91b606482015260840161047f565b506001600160a01b031660009081526003602052604090205490565b60009182526006602090815260408084206001600160a01b0393909316845291905290205460ff1690565b606060018054610361906116ab565b6105f5338383610c59565b6107943383610965565b6107b05760405162461bcd60e51b815260040161047f906116e5565b6107bc84848484610d27565b50505050565b60606107cd82610895565b60006107f960408051808201909152600d81526c68747470733a2f2f544f444f2f60981b602082015290565b905060008151116108195760405180602001604052806000815250610844565b8061082384610d5a565b604051602001610834929190611761565b6040516020818303038152906040525b9392505050565b60008281526006602052604090206001015461086681610b48565b6105208383610bd8565b60006001600160e01b03198216637965db0b60e01b148061034c575061034c82610ded565b6000818152600260205260409020546001600160a01b03166108f45760405162461bcd60e51b8152602060048201526018602482015277115490cdcc8c4e881a5b9d985b1a59081d1bdad95b88125160421b604482015260640161047f565b50565b600081815260046020526040902080546001600160a01b0319166001600160a01b038416908117909155819061092c8261065f565b6001600160a01b03167f8c5be1e5ebec7d5bd14f71427d1e84f3dd0314c0f7b2291e5b200ac8c7c3b92560405160405180910390a45050565b6000806109718361065f565b9050806001600160a01b0316846001600160a01b031614806109b857506001600160a01b0380821660009081526005602090815260408083209388168352929052205460ff165b806109dc5750836001600160a01b03166109d1846103e4565b6001600160a01b0316145b949350505050565b826001600160a01b03166109f78261065f565b6001600160a01b031614610a1d5760405162461bcd60e51b815260040161047f90611790565b6001600160a01b038216610a7f5760405162461bcd60e51b8152602060048201526024808201527f4552433732313a207472616e7366657220746f20746865207a65726f206164646044820152637265737360e01b606482015260840161047f565b826001600160a01b0316610a928261065f565b6001600160a01b031614610ab85760405162461bcd60e51b815260040161047f90611790565b600081815260046020908152604080832080546001600160a01b03199081169091556001600160a01b0387811680865260038552838620805460001901905590871680865283862080546001019055868652600290945282852080549092168417909155905184937fddf252ad1be2c89b69c2b068fc378daa952ba7f163c4a11628f55a4df523b3ef91a4505050565b6108f48133610e3d565b610b5c8282610745565b6105f55760008281526006602090815260408083206001600160a01b03851684529091529020805460ff19166001179055610b943390565b6001600160a01b0316816001600160a01b0316837f2f8788117e7eff1d82e926ec794901d17c78024a50270940304540a733656f0d60405160405180910390a45050565b610be28282610745565b156105f55760008281526006602090815260408083206001600160a01b0385168085529252808320805460ff1916905551339285917ff6391f5c32d9c69d2a47ea670b442974b53935d1edc7fd64eb21e047a839171b9190a45050565b6105f5828260405180602001604052806000815250610e96565b816001600160a01b0316836001600160a01b031603610cba5760405162461bcd60e51b815260206004820152601960248201527f4552433732313a20617070726f766520746f2063616c6c657200000000000000604482015260640161047f565b6001600160a01b03838116600081815260056020908152604080832094871680845294825291829020805460ff191686151590811790915591519182527f17307eab39ab6107e8899845ad3d59bd9653f200f220920489ca2b5937696c31910160405180910390a3505050565b610d328484846109e4565b610d3e84848484610ec9565b6107bc5760405162461bcd60e51b815260040161047f906117d5565b60606000610d6783610fca565b600101905060008167ffffffffffffffff811115610d8757610d8761158f565b6040519080825280601f01601f191660200182016040528015610db1576020820181803683370190505b5090508181016020015b600019016f181899199a1a9b1b9c1cb0b131b232b360811b600a86061a8153600a8504945084610dbb57509392505050565b60006001600160e01b031982166380ac58cd60e01b1480610e1e57506001600160e01b03198216635b5e139f60e01b145b8061034c57506301ffc9a760e01b6001600160e01b031983161461034c565b610e478282610745565b6105f557610e54816110a2565b610e5f8360206110b4565b604051602001610e70929190611827565b60408051601f198184030181529082905262461bcd60e51b825261047f9160040161145e565b610ea08383611250565b610ead6000848484610ec9565b6105205760405162461bcd60e51b815260040161047f906117d5565b60006001600160a01b0384163b15610fbf57604051630a85bd0160e11b81526001600160a01b0385169063150b7a0290610f0d90339089908890889060040161189c565b6020604051808303816000875af1925050508015610f48575060408051601f3d908101601f19168201909252610f45918101906118d9565b60015b610fa5573d808015610f76576040519150601f19603f3d011682016040523d82523d6000602084013e610f7b565b606091505b508051600003610f9d5760405162461bcd60e51b815260040161047f906117d5565b805181602001fd5b6001600160e01b031916630a85bd0160e11b1490506109dc565b506001949350505050565b60008072184f03e93ff9f4daa797ed6e38ed64bf6a1f0160401b83106110095772184f03e93ff9f4daa797ed6e38ed64bf6a1f0160401b830492506040015b6d04ee2d6d415b85acef81000000008310611035576d04ee2d6d415b85acef8100000000830492506020015b662386f26fc10000831061105357662386f26fc10000830492506010015b6305f5e100831061106b576305f5e100830492506008015b612710831061107f57612710830492506004015b60648310611091576064830492506002015b600a831061034c5760010192915050565b606061034c6001600160a01b03831660145b606060006110c38360026118f6565b6110ce90600261190d565b67ffffffffffffffff8111156110e6576110e661158f565b6040519080825280601f01601f191660200182016040528015611110576020820181803683370190505b509050600360fc1b8160008151811061112b5761112b611920565b60200101906001600160f81b031916908160001a905350600f60fb1b8160018151811061115a5761115a611920565b60200101906001600160f81b031916908160001a905350600061117e8460026118f6565b61118990600161190d565b90505b6001811115611201576f181899199a1a9b1b9c1cb0b131b232b360811b85600f16601081106111bd576111bd611920565b1a60f81b8282815181106111d3576111d3611920565b60200101906001600160f81b031916908160001a90535060049490941c936111fa81611936565b905061118c565b5083156108445760405162461bcd60e51b815260206004820181905260248201527f537472696e67733a20686578206c656e67746820696e73756666696369656e74604482015260640161047f565b6001600160a01b0382166112a65760405162461bcd60e51b815260206004820181905260248201527f4552433732313a206d696e7420746f20746865207a65726f2061646472657373604482015260640161047f565b6000818152600260205260409020546001600160a01b03161561130b5760405162461bcd60e51b815260206004820152601c60248201527f4552433732313a20746f6b656e20616c7265616479206d696e74656400000000604482015260640161047f565b6000818152600260205260409020546001600160a01b0316156113705760405162461bcd60e51b815260206004820152601c60248201527f4552433732313a20746f6b656e20616c7265616479206d696e74656400000000604482015260640161047f565b6001600160a01b038216600081815260036020908152604080832080546001019055848352600290915280822080546001600160a01b0319168417905551839291907fddf252ad1be2c89b69c2b068fc378daa952ba7f163c4a11628f55a4df523b3ef908290a45050565b6001600160e01b0319811681146108f457600080fd5b60006020828403121561140357600080fd5b8135610844816113db565b60005b83811015611429578181015183820152602001611411565b50506000910152565b6000815180845261144a81602086016020860161140e565b601f01601f19169290920160200192915050565b6020815260006108446020830184611432565b60006020828403121561148357600080fd5b5035919050565b80356001600160a01b03811681146114a157600080fd5b919050565b600080604083850312156114b957600080fd5b6114c28361148a565b946020939093013593505050565b6000806000606084860312156114e557600080fd5b6114ee8461148a565b92506114fc6020850161148a565b9150604084013590509250925092565b6000806040838503121561151f57600080fd5b8235915061152f6020840161148a565b90509250929050565b60006020828403121561154a57600080fd5b6108448261148a565b6000806040838503121561156657600080fd5b61156f8361148a565b91506020830135801515811461158457600080fd5b809150509250929050565b634e487b7160e01b600052604160045260246000fd5b600080600080608085870312156115bb57600080fd5b6115c48561148a565b93506115d26020860161148a565b925060408501359150606085013567ffffffffffffffff808211156115f657600080fd5b818701915087601f83011261160a57600080fd5b81358181111561161c5761161c61158f565b604051601f8201601f19908116603f011681019083821181831017156116445761164461158f565b816040528281528a602084870101111561165d57600080fd5b82602086016020830137600060208483010152809550505050505092959194509250565b6000806040838503121561169457600080fd5b61169d8361148a565b915061152f6020840161148a565b600181811c908216806116bf57607f821691505b6020821081036116df57634e487b7160e01b600052602260045260246000fd5b50919050565b6020808252602d908201527f4552433732313a2063616c6c6572206973206e6f7420746f6b656e206f776e6560408201526c1c881bdc88185c1c1c9bdd9959609a1b606082015260800190565b634e487b7160e01b600052601160045260246000fd5b60006001820161175a5761175a611732565b5060010190565b6000835161177381846020880161140e565b83519083019061178781836020880161140e565b01949350505050565b60208082526025908201527f4552433732313a207472616e736665722066726f6d20696e636f72726563742060408201526437bbb732b960d91b606082015260800190565b60208082526032908201527f4552433732313a207472616e7366657220746f206e6f6e20455243373231526560408201527131b2b4bb32b91034b6b83632b6b2b73a32b960711b606082015260800190565b7f416363657373436f6e74726f6c3a206163636f756e742000000000000000000081526000835161185f81601785016020880161140e565b7001034b99036b4b9b9b4b733903937b6329607d1b601791840191820152835161189081602884016020880161140e565b01602801949350505050565b6001600160a01b03858116825284166020820152604081018390526080606082018190526000906118cf90830184611432565b9695505050505050565b6000602082840312156118eb57600080fd5b8151610844816113db565b808202811582820484141761034c5761034c611732565b8082018082111561034c5761034c611732565b634e487b7160e01b600052603260045260246000fd5b60008161194557611945611732565b50600019019056fea2646970667358221220f8ae5af1d9f2aef6abbc9f3bd2565a93be5a3691d6c352b020f4646c2ee5d8f864736f6c63430008110033",
  "devdoc": {
    "kind": "dev",
    "methods": {
      "approve(address,uint256)": {
        "details": "See {IERC721-approve}."
      },
      "balanceOf(address)": {
        "details": "See {IERC721-balanceOf}."
      },
      "getApproved(uint256)": {
        "details": "See {IERC721-getApproved}."
      },
      "getRoleAdmin(bytes32)": {
        "details": "Returns the admin role that controls `role`. See {grantRole} and {revokeRole}. To change a role's admin, use {_setRoleAdmin}."
      },
      "grantRole(bytes32,address)": {
        "details": "Grants `role` to `account`. If `account` had not been already granted `role`, emits a {RoleGranted} event. Requirements: - the caller must have ``role``'s admin role. May emit a {RoleGranted} event."
      },
      "hasRole(bytes32,address)": {
        "details": "Returns `true` if `account` has been granted `role`."
      },
      "isApprovedForAll(address,address)": {
        "details": "See {IERC721-isApprovedForAll}."
      },
      "name()": {
        "details": "See {IERC721Metadata-name}."
      },
      "ownerOf(uint256)": {
        "details": "See {IERC721-ownerOf}."
      },
      "renounceRole(bytes32,address)": {
        "details": "Revokes `role` from the calling account. Roles are often managed via {grantRole} and {revokeRole}: this function's purpose is to provide a mechanism for accounts to lose their privileges if they are compromised (such as when a trusted device is misplaced). If the calling account had been revoked `role`, emits a {RoleRevoked} event. Requirements: - the caller must be `account`. May emit a {RoleRevoked} event."
      },
      "revokeRole(bytes32,address)": {
        "details": "Revokes `role` from `account`. If `account` had been granted `role`, emits a {RoleRevoked} event. Requirements: - the caller must have ``role``'s admin role. May emit a {RoleRevoked} event."
      },
      "safeTransferFrom(address,address,uint256)": {
        "details": "See {IERC721-safeTransferFrom}."
      },
      "safeTransferFrom(address,address,uint256,bytes)": {
        "details": "See {IERC721-safeTransferFrom}."
      },
      "setApprovalForAll(address,bool)": {
        "details": "See {IERC721-setApprovalForAll}."
      },
      "symbol()": {
        "details": "See {IERC721Metadata-symbol}."
      },
      "tokenURI(uint256)": {
        "details": "See {IERC721Metadata-tokenURI}."
      },
      "transferFrom(address,address,uint256)": {
        "details": "See {IERC721-transferFrom}."
      }
    },
    "version": 1
  },
  "userdoc": {
    "kind": "user",
    "methods": {},
    "version": 1
  },
  "storageLayout": {
    "storage": [
      {
        "astId": 1337,
        "contract": "contracts/BseaNFT.sol:BseaNFT",
        "label": "_name",
        "offset": 0,
        "slot": "0",
        "type": "t_string_storage"
      },
      {
        "astId": 1339,
        "contract": "contracts/BseaNFT.sol:BseaNFT",
        "label": "_symbol",
        "offset": 0,
        "slot": "1",
        "type": "t_string_storage"
      },
      {
        "astId": 1343,
        "contract": "contracts/BseaNFT.sol:BseaNFT",
        "label": "_owners",
        "offset": 0,
        "slot": "2",
        "type": "t_mapping(t_uint256,t_address)"
      },
      {
        "astId": 1347,
        "contract": "contracts/BseaNFT.sol:BseaNFT",
        "label": "_balances",
        "offset": 0,
        "slot": "3",
        "type": "t_mapping(t_address,t_uint256)"
      },
      {
        "astId": 1351,
        "contract": "contracts/BseaNFT.sol:BseaNFT",
        "label": "_tokenApprovals",
        "offset": 0,
        "slot": "4",
        "type": "t_mapping(t_uint256,t_address)"
      },
      {
        "astId": 1357,
        "contract": "contracts/BseaNFT.sol:BseaNFT",
        "label": "_operatorApprovals",
        "offset": 0,
        "slot": "5",
        "type": "t_mapping(t_address,t_mapping(t_address,t_bool))"
      },
      {
        "astId": 24,
        "contract": "contracts/BseaNFT.sol:BseaNFT",
        "label": "_roles",
        "offset": 0,
        "slot": "6",
        "type": "t_mapping(t_bytes32,t_struct(RoleData)19_storage)"
      },
      {
        "astId": 4980,
        "contract": "contracts/BseaNFT.sol:BseaNFT",
        "label": "_nextTokenId",
        "offset": 0,
        "slot": "7",
        "type": "t_uint256"
      }
    ],
    "types": {
      "t_address": {
        "encoding": "inplace",
        "label": "address",
        "numberOfBytes": "20"
      },
      "t_bool": {
        "encoding": "inplace",
        "label": "bool",
        "numberOfBytes": "1"
      },
      "t_bytes32": {
        "encoding": "inplace",
        "label": "bytes32",
        "numberOfBytes": "32"
      },
      "t_mapping(t_address,t_bool)": {
        "encoding": "mapping",
        "key": "t_address",
        "label": "mapping(address => bool)",
        "numberOfBytes": "32",
        "value": "t_bool"
      },
      "t_mapping(t_address,t_mapping(t_address,t_bool))": {
        "encoding": "mapping",
        "key": "t_address",
        "label": "mapping(address => mapping(address => bool))",
        "numberOfBytes": "32",
        "value": "t_mapping(t_address,t_bool)"
      },
      "t_mapping(t_address,t_uint256)": {
        "encoding": "mapping",
        "key": "t_address",
        "label": "mapping(address => uint256)",
        "numberOfBytes": "32",
        "value": "t_uint256"
      },
      "t_mapping(t_bytes32,t_struct(RoleData)19_storage)": {
        "encoding": "mapping",
        "key": "t_bytes32",
        "label": "mapping(bytes32 => struct AccessControl.RoleData)",
        "numberOfBytes": "32",
        "value": "t_struct(RoleData)19_storage"
      },
      "t_mapping(t_uint256,t_address)": {
        "encoding": "mapping",
        "key": "t_uint256",
        "label": "mapping(uint256 => address)",
        "numberOfBytes": "32",
        "value": "t_address"
      },
      "t_string_storage": {
        "encoding": "bytes",
        "label": "string",
        "numberOfBytes": "32"
      },
      "t_struct(RoleData)19_storage": {
        "encoding": "inplace",
        "label": "struct AccessControl.RoleData",
        "members": [
          {
            "astId": 16,
            "contract": "contracts/BseaNFT.sol:BseaNFT",
            "label": "members",
            "offset": 0,
            "slot": "0",
            "type": "t_mapping(t_address,t_bool)"
          },
          {
            "astId": 18,
            "contract": "contracts/BseaNFT.sol:BseaNFT",
            "label": "adminRole",
            "offset": 0,
            "slot": "1",
            "type": "t_bytes32"
          }
        ],
        "numberOfBytes": "64"
      },
      "t_uint256": {
        "encoding": "inplace",
        "label": "uint256",
        "numberOfBytes": "32"
      }
    }
  }
}