{
  "address": "0x429AC1988F0fEdfF4D4De43Ea1A2227789436cAB",
  "abi": [
    {
      "inputs": [
        {
          "internalType": "uint64",
          "name": "subscriptionId",
          "type": "uint64"
        }
      ],
      "stateMutability": "nonpayable",
      "type": "constructor"
    },
    {
      "inputs": [
        {
          "internalType": "address",
          "name": "have",
          "type": "address"
        },
        {
          "internalType": "address",
          "name": "want",
          "type": "address"
        }
      ],
      "name": "OnlyCoordinatorCanFulfill",
      "type": "error"
    },
    {
      "anonymous": false,
      "inputs": [
        {
          "indexed": true,
          "internalType": "uint256",
          "name": "requestId",
          "type": "uint256"
        },
        {
          "indexed": true,
          "internalType": "uint256",
          "name": "result",
          "type": "uint256"
        }
      ],
      "name": "DiceLanded",
      "type": "event"
    },
    {
      "anonymous": false,
      "inputs": [
        {
          "indexed": true,
          "internalType": "uint256",
          "name": "requestId",
          "type": "uint256"
        },
        {
          "indexed": true,
          "internalType": "address",
          "name": "roller",
          "type": "address"
        }
      ],
      "name": "DiceRolled",
      "type": "event"
    },
    {
      "inputs": [
        {
          "internalType": "address",
          "name": "player",
          "type": "address"
        }
      ],
      "name": "getResult",
      "outputs": [
        {
          "internalType": "uint256",
          "name": "",
          "type": "uint256"
        }
      ],
      "stateMutability": "view",
      "type": "function"
    },
    {
      "inputs": [
        {
          "internalType": "uint256",
          "name": "requestId",
          "type": "uint256"
        },
        {
          "internalType": "uint256[]",
          "name": "randomWords",
          "type": "uint256[]"
        }
      ],
      "name": "rawFulfillRandomWords",
      "outputs": [],
      "stateMutability": "nonpayable",
      "type": "function"
    },
    {
      "inputs": [
        {
          "internalType": "address",
          "name": "roller",
          "type": "address"
        }
      ],
      "name": "rollDice",
      "outputs": [
        {
          "internalType": "uint256",
          "name": "requestId",
          "type": "uint256"
        }
      ],
      "stateMutability": "nonpayable",
      "type": "function"
    }
  ],
  "transactionHash": "0x6437611e1667ab849ec4646259d48b1517af743f041c4f18f883cded3a794476",
  "args": [
    42
  ],
  "numDeployments": 1,
  "solcInputHash": "ffb64b0cab524b30123d2074b6cda828",
  "bytecode": "0x60a0604052600180546001600160a01b031916738103b0a8a00be2ddc778e6e7eaa21791cd3646251790557f474e34a077df58807dbe9c96d3c009b23b3c6d0cce433e59bbf5b34f823bc56c600255600380546601000300009c406001600160501b031990911617905534801561007557600080fd5b50604051610721380380610721833981016040819052610094916100f8565b6001546001600160a01b0316608081905260008054600380546a01000000000000000000003302600160501b600160f01b03199091161790556001600160401b03909316600160a01b026001600160e01b0319909316909117919091179055610128565b60006020828403121561010a57600080fd5b81516001600160401b038116811461012157600080fd5b9392505050565b6080516105d961014860003960008181609e015260e001526105d96000f3fe608060405234801561001057600080fd5b50600436106100415760003560e01c80631fe543e314610046578063446a37e01461005b578063dd02d9e514610080575b600080fd5b610059610054366004610431565b610093565b005b61006e6100693660046104fb565b610120565b60405190815260200160405180910390f35b61006e61008e3660046104fb565b6101f1565b336001600160a01b037f000000000000000000000000000000000000000000000000000000000000000016146101125760405163073e64fd60e21b81523360048201526001600160a01b037f00000000000000000000000000000000000000000000000000000000000000001660248201526044015b60405180910390fd5b61011c828261038f565b5050565b6001600160a01b03811660009081526005602052604081205481036101795760405162461bcd60e51b815260206004820152600f60248201526e111a58d9481b9bdd081c9bdb1b1959608a1b6044820152606401610109565b6001600160a01b038216600090815260056020526040902054602919016101d55760405162461bcd60e51b815260206004820152601060248201526f526f6c6c20696e2070726f677265737360801b6044820152606401610109565b506001600160a01b031660009081526005602052604090205490565b600354600090600160501b90046001600160a01b0316331461021257600080fd5b6001600160a01b038216600090815260056020526040902054156102695760405162461bcd60e51b815260206004820152600e60248201526d105b1c9958591e481c9bdb1b195960921b6044820152606401610109565b6000546002546003546040516305d3b1d360e41b81526004810192909252600160a01b830467ffffffffffffffff166024830152640100000000810461ffff16604483015263ffffffff808216606484015266010000000000009091041660848201526001600160a01b0390911690635d3b1d309060a4016020604051808303816000875af1158015610300573d6000803e3d6000fd5b505050506040513d601f19601f82011682018060405250810190610324919061052b565b600081815260046020908152604080832080546001600160a01b0319166001600160a01b0388169081179091558084526005909252808320602a9055519293509183917f3e7fdeab84c01ce5308321caa0b460e1c4ec3c7099223d79634d9a71d99932e391a3919050565b60006014826000815181106103a6576103a6610544565b60200260200101516103b8919061055a565b6103c390600161057c565b6000848152600460209081526040808320546001600160a01b03168352600590915280822083905551919250829185917f54d97c1f7e5abad75bd421455cd4dd296852a52e1ea721f2cdb66d06fa2082a991a3505050565b634e487b7160e01b600052604160045260246000fd5b6000806040838503121561044457600080fd5b8235915060208084013567ffffffffffffffff8082111561046457600080fd5b818601915086601f83011261047857600080fd5b81358181111561048a5761048a61041b565b8060051b604051601f19603f830116810181811085821117156104af576104af61041b565b6040529182528482019250838101850191898311156104cd57600080fd5b938501935b828510156104eb578435845293850193928501926104d2565b8096505050505050509250929050565b60006020828403121561050d57600080fd5b81356001600160a01b038116811461052457600080fd5b9392505050565b60006020828403121561053d57600080fd5b5051919050565b634e487b7160e01b600052603260045260246000fd5b60008261057757634e487b7160e01b600052601260045260246000fd5b500690565b8082018082111561059d57634e487b7160e01b600052601160045260246000fd5b9291505056fea26469706673582212202c31a3199b9efc96cfe14892ecc6afed9bc5892e66d4933b4675586c3e55c2de64736f6c63430008110033",
  "devdoc": {
    "kind": "dev",
    "methods": {
      "constructor": {
        "details": "NETWORK: Sepolia",
        "params": {
          "subscriptionId": "subscription id that this consumer contract can use"
        }
      },
      "getResult(address)": {
        "params": {
          "player": "address"
        },
        "returns": {
          "_0": "house as a string"
        }
      },
      "rollDice(address)": {
        "details": "Warning: if the VRF response is delayed, avoid calling requestRandomness repeatedly as that would give miners/VRF operators latitude about which VRF response arrives first.You must review your implementation details with extreme care.",
        "params": {
          "roller": "address of the roller"
        }
      }
    },
    "version": 1
  },
  "userdoc": {
    "kind": "user",
    "methods": {
      "constructor": {
        "notice": "Constructor inherits VRFConsumerBaseV2"
      },
      "getResult(address)": {
        "notice": "Get dice rolled result"
      },
      "rollDice(address)": {
        "notice": "Requests randomness"
      }
    },
    "notice": "THIS IS AN EXAMPLE CONTRACT THAT USES HARDCODED VALUES FOR CLARITY. THIS IS AN EXAMPLE CONTRACT THAT USES UN-AUDITED CODE. DO NOT USE THIS CODE IN PRODUCTION.",
    "version": 1
  },
  "storageLayout": {
    "storage": [
      {
        "astId": 168,
        "contract": "contracts/VRFD20.sol:VRFD20",
        "label": "COORDINATOR",
        "offset": 0,
        "slot": "0",
        "type": "t_contract(VRFCoordinatorV2Interface)95"
      },
      {
        "astId": 170,
        "contract": "contracts/VRFD20.sol:VRFD20",
        "label": "s_subscriptionId",
        "offset": 20,
        "slot": "0",
        "type": "t_uint64"
      },
      {
        "astId": 173,
        "contract": "contracts/VRFD20.sol:VRFD20",
        "label": "vrfCoordinator",
        "offset": 0,
        "slot": "1",
        "type": "t_address"
      },
      {
        "astId": 176,
        "contract": "contracts/VRFD20.sol:VRFD20",
        "label": "s_keyHash",
        "offset": 0,
        "slot": "2",
        "type": "t_bytes32"
      },
      {
        "astId": 179,
        "contract": "contracts/VRFD20.sol:VRFD20",
        "label": "callbackGasLimit",
        "offset": 0,
        "slot": "3",
        "type": "t_uint32"
      },
      {
        "astId": 182,
        "contract": "contracts/VRFD20.sol:VRFD20",
        "label": "requestConfirmations",
        "offset": 4,
        "slot": "3",
        "type": "t_uint16"
      },
      {
        "astId": 185,
        "contract": "contracts/VRFD20.sol:VRFD20",
        "label": "numWords",
        "offset": 6,
        "slot": "3",
        "type": "t_uint32"
      },
      {
        "astId": 187,
        "contract": "contracts/VRFD20.sol:VRFD20",
        "label": "s_owner",
        "offset": 10,
        "slot": "3",
        "type": "t_address"
      },
      {
        "astId": 191,
        "contract": "contracts/VRFD20.sol:VRFD20",
        "label": "s_rollers",
        "offset": 0,
        "slot": "4",
        "type": "t_mapping(t_uint256,t_address)"
      },
      {
        "astId": 195,
        "contract": "contracts/VRFD20.sol:VRFD20",
        "label": "s_results",
        "offset": 0,
        "slot": "5",
        "type": "t_mapping(t_address,t_uint256)"
      }
    ],
    "types": {
      "t_address": {
        "encoding": "inplace",
        "label": "address",
        "numberOfBytes": "20"
      },
      "t_bytes32": {
        "encoding": "inplace",
        "label": "bytes32",
        "numberOfBytes": "32"
      },
      "t_contract(VRFCoordinatorV2Interface)95": {
        "encoding": "inplace",
        "label": "contract VRFCoordinatorV2Interface",
        "numberOfBytes": "20"
      },
      "t_mapping(t_address,t_uint256)": {
        "encoding": "mapping",
        "key": "t_address",
        "label": "mapping(address => uint256)",
        "numberOfBytes": "32",
        "value": "t_uint256"
      },
      "t_mapping(t_uint256,t_address)": {
        "encoding": "mapping",
        "key": "t_uint256",
        "label": "mapping(uint256 => address)",
        "numberOfBytes": "32",
        "value": "t_address"
      },
      "t_uint16": {
        "encoding": "inplace",
        "label": "uint16",
        "numberOfBytes": "2"
      },
      "t_uint256": {
        "encoding": "inplace",
        "label": "uint256",
        "numberOfBytes": "32"
      },
      "t_uint32": {
        "encoding": "inplace",
        "label": "uint32",
        "numberOfBytes": "4"
      },
      "t_uint64": {
        "encoding": "inplace",
        "label": "uint64",
        "numberOfBytes": "8"
      }
    }
  }
}